{
  "contractName": "CadastroPacientes",
  "abi": [
    {
      "inputs": [],
      "stateMutability": "nonpayable",
      "type": "constructor"
    },
    {
      "inputs": [
        {
          "internalType": "uint256",
          "name": "",
          "type": "uint256"
        }
      ],
      "name": "listaCPFs",
      "outputs": [
        {
          "internalType": "string",
          "name": "",
          "type": "string"
        }
      ],
      "stateMutability": "view",
      "type": "function",
      "constant": true
    },
    {
      "inputs": [
        {
          "internalType": "string",
          "name": "_nome",
          "type": "string"
        },
        {
          "internalType": "uint256",
          "name": "_idade",
          "type": "uint256"
        },
        {
          "internalType": "string",
          "name": "_cpf",
          "type": "string"
        },
        {
          "internalType": "string",
          "name": "_enderecoPaciente",
          "type": "string"
        }
      ],
      "name": "cadastrarPaciente",
      "outputs": [],
      "stateMutability": "nonpayable",
      "type": "function"
    },
    {
      "inputs": [
        {
          "internalType": "string",
          "name": "_cpf",
          "type": "string"
        }
      ],
      "name": "consultarPaciente",
      "outputs": [
        {
          "internalType": "string",
          "name": "",
          "type": "string"
        },
        {
          "internalType": "uint256",
          "name": "",
          "type": "uint256"
        },
        {
          "internalType": "string",
          "name": "",
          "type": "string"
        },
        {
          "internalType": "string",
          "name": "",
          "type": "string"
        }
      ],
      "stateMutability": "view",
      "type": "function",
      "constant": true
    },
    {
      "inputs": [],
      "name": "totalPacientes",
      "outputs": [
        {
          "internalType": "uint256",
          "name": "",
          "type": "uint256"
        }
      ],
      "stateMutability": "view",
      "type": "function",
      "constant": true
    }
  ],
  "bytecode": "0x60806040523480156200001157600080fd5b50620000c66040518060400160405280600a81526020017f4a6f616f2053696c766100000000000000000000000000000000000000000000815250601e6040518060400160405280600b81526020017f31313131313131313131310000000000000000000000000000000000000000008152506040518060400160405280600a81526020017f52756120412c20313233000000000000000000000000000000000000000000008152506200023460201b60201c565b6200017a6040518060400160405280600b81526020017f4d6172696120536f757a6100000000000000000000000000000000000000000081525060196040518060400160405280600b81526020017f32323232323232323232320000000000000000000000000000000000000000008152506040518060400160405280601481526020017f4176656e6964612043656e7472616c2c203435360000000000000000000000008152506200023460201b60201c565b6200022e6040518060400160405280600e81526020017f4361726c6f73205065726569726100000000000000000000000000000000000081525060286040518060400160405280600b81526020017f33333333333333333333330000000000000000000000000000000000000000008152506040518060400160405280600a81526020017f52756120422c20373839000000000000000000000000000000000000000000008152506200023460201b60201c565b6200071e565b60006040518060a0016040528086815260200185815260200184815260200183815260200160011515815250905080600084604051620002759190620003af565b908152602001604051809103902060008201518160000190816200029a919062000637565b50602082015181600101556040820151816002019081620002bc919062000637565b506060820151816003019081620002d4919062000637565b5060808201518160040160006101000a81548160ff0219169083151502179055509050506001839080600181540180825580915050600190039060005260206000200160009091909190915090816200032e919062000637565b505050505050565b600081519050919050565b600081905092915050565b60005b838110156200036c5780820151818401526020810190506200034f565b60008484015250505050565b6000620003858262000336565b62000391818562000341565b9350620003a38185602086016200034c565b80840191505092915050565b6000620003bd828462000378565b915081905092915050565b7f4e487b7100000000000000000000000000000000000000000000000000000000600052604160045260246000fd5b7f4e487b7100000000000000000000000000000000000000000000000000000000600052602260045260246000fd5b600060028204905060018216806200043f57607f821691505b602082108103620004555762000454620003f7565b5b50919050565b60008190508160005260206000209050919050565b60006020601f8301049050919050565b600082821b905092915050565b600060088302620004bf7fffffffffffffffffffffffffffffffffffffffffffffffffffffffffffffffff8262000480565b620004cb868362000480565b95508019841693508086168417925050509392505050565b6000819050919050565b6000819050919050565b600062000518620005126200050c84620004e3565b620004ed565b620004e3565b9050919050565b6000819050919050565b6200053483620004f7565b6200054c62000543826200051f565b8484546200048d565b825550505050565b600090565b6200056362000554565b6200057081848462000529565b505050565b5b8181101562000598576200058c60008262000559565b60018101905062000576565b5050565b601f821115620005e757620005b1816200045b565b620005bc8462000470565b81016020851015620005cc578190505b620005e4620005db8562000470565b83018262000575565b50505b505050565b600082821c905092915050565b60006200060c60001984600802620005ec565b1980831691505092915050565b6000620006278383620005f9565b9150826002028217905092915050565b620006428262000336565b67ffffffffffffffff8111156200065e576200065d620003c8565b5b6200066a825462000426565b620006778282856200059c565b600060209050601f831160018114620006af57600084156200069a578287015190505b620006a6858262000619565b86555062000716565b601f198416620006bf866200045b565b60005b82811015620006e957848901518255600182019150602085019450602081019050620006c2565b8683101562000709578489015162000705601f891682620005f9565b8355505b6001600288020188555050505b505050505050565b611027806200072e6000396000f3fe608060405234801561001057600080fd5b506004361061004c5760003560e01c80633d5760691461005157806372c710431461008457806381ee5638146100a2578063c34af3e6146100d2575b600080fd5b61006b60048036038101906100669190610818565b6100ee565b60405161007b94939291906108f9565b60405180910390f35b61008c61038e565b6040516100999190610953565b60405180910390f35b6100bc60048036038101906100b7919061099a565b61039b565b6040516100c991906109c7565b60405180910390f35b6100ec60048036038101906100e791906109e9565b610447565b005b606060006060806000856040516101059190610ae0565b908152602001604051809103902060040160009054906101000a900460ff16610163576040517f08c379a000000000000000000000000000000000000000000000000000000000815260040161015a90610b43565b60405180910390fd5b600080866040516101749190610ae0565b90815260200160405180910390206040518060a001604052908160008201805461019d90610b92565b80601f01602080910402602001604051908101604052809291908181526020018280546101c990610b92565b80156102165780601f106101eb57610100808354040283529160200191610216565b820191906000526020600020905b8154815290600101906020018083116101f957829003601f168201915b505050505081526020016001820154815260200160028201805461023990610b92565b80601f016020809104026020016040519081016040528092919081815260200182805461026590610b92565b80156102b25780601f10610287576101008083540402835291602001916102b2565b820191906000526020600020905b81548152906001019060200180831161029557829003601f168201915b505050505081526020016003820180546102cb90610b92565b80601f01602080910402602001604051908101604052809291908181526020018280546102f790610b92565b80156103445780601f1061031957610100808354040283529160200191610344565b820191906000526020600020905b81548152906001019060200180831161032757829003601f168201915b505050505081526020016004820160009054906101000a900460ff161515151581525050905080600001518160200151826040015183606001519450945094509450509193509193565b6000600180549050905090565b600181815481106103ab57600080fd5b9060005260206000200160009150905080546103c690610b92565b80601f01602080910402602001604051908101604052809291908181526020018280546103f290610b92565b801561043f5780601f106104145761010080835404028352916020019161043f565b820191906000526020600020905b81548152906001019060200180831161042257829003601f168201915b505050505081565b61045082610660565b15610490576040517f08c379a000000000000000000000000000000000000000000000000000000000815260040161048790610c0f565b60405180910390fd5b61049984610697565b6104d8576040517f08c379a00000000000000000000000000000000000000000000000000000000081526004016104cf90610c7b565b60405180910390fd5b6104e1836106a4565b610520576040517f08c379a000000000000000000000000000000000000000000000000000000000815260040161051790610ce7565b60405180910390fd5b610529826106b1565b610568576040517f08c379a000000000000000000000000000000000000000000000000000000000815260040161055f90610d53565b60405180910390fd5b60006040518060a00160405280868152602001858152602001848152602001838152602001600115158152509050806000846040516105a79190610ae0565b908152602001604051809103902060008201518160000190816105ca9190610f1f565b506020820151816001015560408201518160020190816105ea9190610f1f565b5060608201518160030190816106009190610f1f565b5060808201518160040160006101000a81548160ff0219169083151502179055509050506001839080600181540180825580915050600190039060005260206000200160009091909190915090816106589190610f1f565b505050505050565b600080826040516106719190610ae0565b908152602001604051809103902060040160009054906101000a900460ff169050919050565b6000808251119050919050565b6000600c82119050919050565b6000808251119050919050565b6000604051905090565b600080fd5b600080fd5b600080fd5b600080fd5b6000601f19601f8301169050919050565b7f4e487b7100000000000000000000000000000000000000000000000000000000600052604160045260246000fd5b610725826106dc565b810181811067ffffffffffffffff82111715610744576107436106ed565b5b80604052505050565b60006107576106be565b9050610763828261071c565b919050565b600067ffffffffffffffff821115610783576107826106ed565b5b61078c826106dc565b9050602081019050919050565b82818337600083830152505050565b60006107bb6107b684610768565b61074d565b9050828152602081018484840111156107d7576107d66106d7565b5b6107e2848285610799565b509392505050565b600082601f8301126107ff576107fe6106d2565b5b813561080f8482602086016107a8565b91505092915050565b60006020828403121561082e5761082d6106c8565b5b600082013567ffffffffffffffff81111561084c5761084b6106cd565b5b610858848285016107ea565b91505092915050565b600081519050919050565b600082825260208201905092915050565b60005b8381101561089b578082015181840152602081019050610880565b60008484015250505050565b60006108b282610861565b6108bc818561086c565b93506108cc81856020860161087d565b6108d5816106dc565b840191505092915050565b6000819050919050565b6108f3816108e0565b82525050565b6000608082019050818103600083015261091381876108a7565b905061092260208301866108ea565b818103604083015261093481856108a7565b9050818103606083015261094881846108a7565b905095945050505050565b600060208201905061096860008301846108ea565b92915050565b610977816108e0565b811461098257600080fd5b50565b6000813590506109948161096e565b92915050565b6000602082840312156109b0576109af6106c8565b5b60006109be84828501610985565b91505092915050565b600060208201905081810360008301526109e181846108a7565b905092915050565b60008060008060808587031215610a0357610a026106c8565b5b600085013567ffffffffffffffff811115610a2157610a206106cd565b5b610a2d878288016107ea565b9450506020610a3e87828801610985565b935050604085013567ffffffffffffffff811115610a5f57610a5e6106cd565b5b610a6b878288016107ea565b925050606085013567ffffffffffffffff811115610a8c57610a8b6106cd565b5b610a98878288016107ea565b91505092959194509250565b600081905092915050565b6000610aba82610861565b610ac48185610aa4565b9350610ad481856020860161087d565b80840191505092915050565b6000610aec8284610aaf565b915081905092915050565b7f50616369656e7465206e616f20656e636f6e747261646f2e0000000000000000600082015250565b6000610b2d60188361086c565b9150610b3882610af7565b602082019050919050565b60006020820190508181036000830152610b5c81610b20565b9050919050565b7f4e487b7100000000000000000000000000000000000000000000000000000000600052602260045260246000fd5b60006002820490506001821680610baa57607f821691505b602082108103610bbd57610bbc610b63565b5b50919050565b7f435046206a61206361646173747261646f2e0000000000000000000000000000600082015250565b6000610bf960128361086c565b9150610c0482610bc3565b602082019050919050565b60006020820190508181036000830152610c2881610bec565b9050919050565b7f4e6f6d65206f6272696761746f72696f2e000000000000000000000000000000600082015250565b6000610c6560118361086c565b9150610c7082610c2f565b602082019050919050565b60006020820190508181036000830152610c9481610c58565b9050919050565b7f4964616465206465766520736572206d61696f72207175652031322e00000000600082015250565b6000610cd1601c8361086c565b9150610cdc82610c9b565b602082019050919050565b60006020820190508181036000830152610d0081610cc4565b9050919050565b7f435046206f6272696761746f72696f2e00000000000000000000000000000000600082015250565b6000610d3d60108361086c565b9150610d4882610d07565b602082019050919050565b60006020820190508181036000830152610d6c81610d30565b9050919050565b60008190508160005260206000209050919050565b60006020601f8301049050919050565b600082821b905092915050565b600060088302610dd57fffffffffffffffffffffffffffffffffffffffffffffffffffffffffffffffff82610d98565b610ddf8683610d98565b95508019841693508086168417925050509392505050565b6000819050919050565b6000610e1c610e17610e12846108e0565b610df7565b6108e0565b9050919050565b6000819050919050565b610e3683610e01565b610e4a610e4282610e23565b848454610da5565b825550505050565b600090565b610e5f610e52565b610e6a818484610e2d565b505050565b5b81811015610e8e57610e83600082610e57565b600181019050610e70565b5050565b601f821115610ed357610ea481610d73565b610ead84610d88565b81016020851015610ebc578190505b610ed0610ec885610d88565b830182610e6f565b50505b505050565b600082821c905092915050565b6000610ef660001984600802610ed8565b1980831691505092915050565b6000610f0f8383610ee5565b9150826002028217905092915050565b610f2882610861565b67ffffffffffffffff811115610f4157610f406106ed565b5b610f4b8254610b92565b610f56828285610e92565b600060209050601f831160018114610f895760008415610f77578287015190505b610f818582610f03565b865550610fe9565b601f198416610f9786610d73565b60005b82811015610fbf57848901518255600182019150602085019450602081019050610f9a565b86831015610fdc5784890151610fd8601f891682610ee5565b8355505b6001600288020188555050505b50505050505056fea2646970667358221220f55a0ad87057fe6b289f5678bf39a8b74ec6ca1fab695cf7768645cbbd85105f64736f6c63430008130033",
  "immutableReferences": {},
  "source": "// SPDX-License-Identifier: GPL-3.0\r\npragma solidity >=0.7.0 <0.9.0;\r\n\r\ncontract CadastroPacientes {\r\n\r\n    struct Paciente {\r\n        string nome;\r\n        uint idade;\r\n        string cpf;\r\n        string enderecoPaciente;\r\n        bool existe;\r\n    }\r\n\r\n    mapping(string => Paciente) private pacientes;\r\n    string[] public listaCPFs;\r\n\r\n    // ============================================================\r\n    // CONSTRUTOR (Pacientes pr-cadastrados)\r\n    // ============================================================\r\n\r\n    constructor() {\r\n        _adicionarPacienteInicial(\"Joao Silva\", 30, \"11111111111\", \"Rua A, 123\");\r\n        _adicionarPacienteInicial(\"Maria Souza\", 25, \"22222222222\", \"Avenida Central, 456\");\r\n        _adicionarPacienteInicial(\"Carlos Pereira\", 40, \"33333333333\", \"Rua B, 789\");\r\n    }\r\n\r\n    function _adicionarPacienteInicial(\r\n        string memory _nome,\r\n        uint _idade,\r\n        string memory _cpf,\r\n        string memory _enderecoPaciente\r\n    ) private {\r\n        Paciente memory p = Paciente(_nome, _idade, _cpf, _enderecoPaciente, true);\r\n        pacientes[_cpf] = p;\r\n        listaCPFs.push(_cpf);\r\n    }\r\n\r\n    // ============================================================\r\n    // Validaes privadas\r\n    // ============================================================\r\n\r\n    function _ehNomeValido(string memory _nome) private pure returns (bool) {\r\n        return bytes(_nome).length > 0;\r\n    }\r\n\r\n    function _ehIdadeValida(uint _idade) private pure returns (bool) {\r\n        return _idade > 12;\r\n    }\r\n\r\n    function _ehCpfValido(string memory _cpf) private pure returns (bool) {\r\n        return bytes(_cpf).length > 0;\r\n    }\r\n\r\n    function _cpfJaExiste(string memory _cpf) private view returns (bool) {\r\n        return pacientes[_cpf].existe;\r\n    }\r\n\r\n    // ============================================================\r\n    // Cadastro\r\n    // ============================================================\r\n\r\n    function cadastrarPaciente(\r\n        string memory _nome,\r\n        uint _idade,\r\n        string memory _cpf,\r\n        string memory _enderecoPaciente\r\n    ) public {\r\n\r\n        require(!_cpfJaExiste(_cpf), \"CPF ja cadastrado.\");\r\n        require(_ehNomeValido(_nome), \"Nome obrigatorio.\");\r\n        require(_ehIdadeValida(_idade), \"Idade deve ser maior que 12.\");\r\n        require(_ehCpfValido(_cpf), \"CPF obrigatorio.\");\r\n\r\n        Paciente memory novoPaciente = Paciente(\r\n            _nome,\r\n            _idade,\r\n            _cpf,\r\n            _enderecoPaciente,\r\n            true\r\n        );\r\n\r\n        pacientes[_cpf] = novoPaciente;\r\n        listaCPFs.push(_cpf);\r\n    }\r\n\r\n    // ============================================================\r\n    // Consulta\r\n    // ============================================================\r\n\r\n    function consultarPaciente(string memory _cpf)\r\n        public\r\n        view\r\n        returns (string memory, uint, string memory, string memory)\r\n    {\r\n        require(pacientes[_cpf].existe, \"Paciente nao encontrado.\");\r\n\r\n        Paciente memory p = pacientes[_cpf];\r\n        return (p.nome, p.idade, p.cpf, p.enderecoPaciente);\r\n    }\r\n\r\n    // ============================================================\r\n    // Total\r\n    // ============================================================\r\n\r\n    function totalPacientes() public view returns (uint) {\r\n        return listaCPFs.length;\r\n    }\r\n}\r\n",
  "sourcePath": "C:\\Users\\USER\\Desktop\\Etapa2BlockChain\\AprenzidadoBlockChain\\contracts\\CadastroPacientes.sol",
  "compiler": {
    "name": "solc",
    "version": "0.8.19+commit.7dd6d404.Emscripten.clang"
  },
  "schemaVersion": "3.4.16",
  "updatedAt": "2025-12-04T12:47:07.627Z",
  "networkType": "ethereum",
  "devdoc": {
    "kind": "dev",
    "methods": {},
    "version": 1
  },
  "userdoc": {
    "kind": "user",
    "methods": {},
    "version": 1
  }
}