{
  "contractName": "CadastroPacientes",
  "abi": [
    {
      "inputs": [
        {
          "internalType": "address",
          "name": "",
          "type": "address"
        }
      ],
      "name": "pacientes",
      "outputs": [
        {
          "internalType": "string",
          "name": "nome",
          "type": "string"
        },
        {
          "internalType": "uint256",
          "name": "idade",
          "type": "uint256"
        },
        {
          "internalType": "string",
          "name": "cpf",
          "type": "string"
        }
      ],
      "stateMutability": "view",
      "type": "function",
      "constant": true
    },
    {
      "inputs": [
        {
          "internalType": "string",
          "name": "_nome",
          "type": "string"
        },
        {
          "internalType": "uint256",
          "name": "_idade",
          "type": "uint256"
        },
        {
          "internalType": "string",
          "name": "_cpf",
          "type": "string"
        }
      ],
      "name": "cadastrarPaciente",
      "outputs": [],
      "stateMutability": "nonpayable",
      "type": "function"
    },
    {
      "inputs": [
        {
          "internalType": "address",
          "name": "_endereco",
          "type": "address"
        }
      ],
      "name": "consultarPaciente",
      "outputs": [
        {
          "internalType": "string",
          "name": "",
          "type": "string"
        },
        {
          "internalType": "uint256",
          "name": "",
          "type": "uint256"
        },
        {
          "internalType": "string",
          "name": "",
          "type": "string"
        }
      ],
      "stateMutability": "view",
      "type": "function",
      "constant": true
    }
  ],
  "bytecode": "0x608060405234801561001057600080fd5b50610c10806100206000396000f3fe608060405234801561001057600080fd5b50600436106100415760003560e01c8063ad36702114610046578063bc14b7dc14610078578063bcbd02fe146100aa575b600080fd5b610060600480360381019061005b9190610563565b6100c6565b60405161006f93929190610639565b60405180910390f35b610092600480360381019061008d9190610563565b610264565b6040516100a193929190610639565b60405180910390f35b6100c460048036038101906100bf91906107df565b61039e565b005b60606000606060008060008673ffffffffffffffffffffffffffffffffffffffff1673ffffffffffffffffffffffffffffffffffffffff16815260200190815260200160002060405180606001604052908160008201805461012790610899565b80601f016020809104026020016040519081016040528092919081815260200182805461015390610899565b80156101a05780601f10610175576101008083540402835291602001916101a0565b820191906000526020600020905b81548152906001019060200180831161018357829003601f168201915b50505050508152602001600182015481526020016002820180546101c390610899565b80601f01602080910402602001604051908101604052809291908181526020018280546101ef90610899565b801561023c5780601f106102115761010080835404028352916020019161023c565b820191906000526020600020905b81548152906001019060200180831161021f57829003601f168201915b5050505050815250509050806000015181602001518260400151935093509350509193909250565b600060205280600052604060002060009150905080600001805461028790610899565b80601f01602080910402602001604051908101604052809291908181526020018280546102b390610899565b80156103005780601f106102d557610100808354040283529160200191610300565b820191906000526020600020905b8154815290600101906020018083116102e357829003601f168201915b50505050509080600101549080600201805461031b90610899565b80601f016020809104026020016040519081016040528092919081815260200182805461034790610899565b80156103945780601f1061036957610100808354040283529160200191610394565b820191906000526020600020905b81548152906001019060200180831161037757829003601f168201915b5050505050905083565b600060405180606001604052808581526020018481526020018381525090506103c681610489565b1561044857806000803373ffffffffffffffffffffffffffffffffffffffff1673ffffffffffffffffffffffffffffffffffffffff168152602001908152602001600020600082015181600001908161041f9190610a76565b5060208201518160010155604082015181600201908161043f9190610a76565b50905050610483565b6040517f08c379a000000000000000000000000000000000000000000000000000000000815260040161047a90610bba565b60405180910390fd5b50505050565b600061049882600001516104c9565b80156104ad57506104ac82602001516104d6565b5b80156104c257506104c182604001516104e3565b5b9050919050565b6000808251119050919050565b6000600c82119050919050565b6000600c8251149050919050565b6000604051905090565b600080fd5b600080fd5b600073ffffffffffffffffffffffffffffffffffffffff82169050919050565b600061053082610505565b9050919050565b61054081610525565b811461054b57600080fd5b50565b60008135905061055d81610537565b92915050565b600060208284031215610579576105786104fb565b5b60006105878482850161054e565b91505092915050565b600081519050919050565b600082825260208201905092915050565b60005b838110156105ca5780820151818401526020810190506105af565b60008484015250505050565b6000601f19601f8301169050919050565b60006105f282610590565b6105fc818561059b565b935061060c8185602086016105ac565b610615816105d6565b840191505092915050565b6000819050919050565b61063381610620565b82525050565b6000606082019050818103600083015261065381866105e7565b9050610662602083018561062a565b818103604083015261067481846105e7565b9050949350505050565b600080fd5b600080fd5b7f4e487b7100000000000000000000000000000000000000000000000000000000600052604160045260246000fd5b6106c0826105d6565b810181811067ffffffffffffffff821117156106df576106de610688565b5b80604052505050565b60006106f26104f1565b90506106fe82826106b7565b919050565b600067ffffffffffffffff82111561071e5761071d610688565b5b610727826105d6565b9050602081019050919050565b82818337600083830152505050565b600061075661075184610703565b6106e8565b90508281526020810184848401111561077257610771610683565b5b61077d848285610734565b509392505050565b600082601f83011261079a5761079961067e565b5b81356107aa848260208601610743565b91505092915050565b6107bc81610620565b81146107c757600080fd5b50565b6000813590506107d9816107b3565b92915050565b6000806000606084860312156107f8576107f76104fb565b5b600084013567ffffffffffffffff81111561081657610815610500565b5b61082286828701610785565b9350506020610833868287016107ca565b925050604084013567ffffffffffffffff81111561085457610853610500565b5b61086086828701610785565b9150509250925092565b7f4e487b7100000000000000000000000000000000000000000000000000000000600052602260045260246000fd5b600060028204905060018216806108b157607f821691505b6020821081036108c4576108c361086a565b5b50919050565b60008190508160005260206000209050919050565b60006020601f8301049050919050565b600082821b905092915050565b60006008830261092c7fffffffffffffffffffffffffffffffffffffffffffffffffffffffffffffffff826108ef565b61093686836108ef565b95508019841693508086168417925050509392505050565b6000819050919050565b600061097361096e61096984610620565b61094e565b610620565b9050919050565b6000819050919050565b61098d83610958565b6109a16109998261097a565b8484546108fc565b825550505050565b600090565b6109b66109a9565b6109c1818484610984565b505050565b5b818110156109e5576109da6000826109ae565b6001810190506109c7565b5050565b601f821115610a2a576109fb816108ca565b610a04846108df565b81016020851015610a13578190505b610a27610a1f856108df565b8301826109c6565b50505b505050565b600082821c905092915050565b6000610a4d60001984600802610a2f565b1980831691505092915050565b6000610a668383610a3c565b9150826002028217905092915050565b610a7f82610590565b67ffffffffffffffff811115610a9857610a97610688565b5b610aa28254610899565b610aad8282856109e9565b600060209050601f831160018114610ae05760008415610ace578287015190505b610ad88582610a5a565b865550610b40565b601f198416610aee866108ca565b60005b82811015610b1657848901518255600182019150602085019450602081019050610af1565b86831015610b335784890151610b2f601f891682610a3c565b8355505b6001600288020188555050505b505050505050565b7f4461646f7320696e76616c69646f732120566572696669717565206e6f6d652c60008201527f20696461646520283e313229206520435046202831322064696769746f73292e602082015250565b6000610ba460408361059b565b9150610baf82610b48565b604082019050919050565b60006020820190508181036000830152610bd381610b97565b905091905056fea26469706673582212206ce107a424d4d0138ade86c00ce5d26853d4e6a0e9d3f85678c699c1c5a67c6e64736f6c63430008130033",
  "immutableReferences": {},
  "source": "// SPDX-License-Identifier: GPL-3.0\r\npragma solidity >=0.7.0 <0.9.0;\r\n\r\ncontract CadastroPacientes {\r\n\r\n    struct Paciente {\r\n        string nome;\r\n        uint idade;\r\n        string cpf;\r\n    }\r\n\r\n    mapping(address => Paciente) public pacientes;\r\n\r\n    function _ehNomeValido(string memory _nome) private pure returns (bool) {\r\n        return bytes(_nome).length > 0;\r\n    }\r\n\r\n    function _ehIdadeValida(uint _idade) private pure returns (bool) {\r\n        return _idade > 12;\r\n    }\r\n\r\n    function _ehCpfValido(string memory _cpf) private pure returns (bool) {\r\n        return bytes(_cpf).length == 12;\r\n    }\r\n\r\n    function _ehPacienteValido(Paciente memory _paciente) private pure returns (bool) {\r\n        return _ehNomeValido(_paciente.nome) &&\r\n               _ehIdadeValida(_paciente.idade) &&\r\n               _ehCpfValido(_paciente.cpf);\r\n    }\r\n\r\n    function cadastrarPaciente(string memory _nome, uint _idade, string memory _cpf) public {\r\n        Paciente memory novoPaciente = Paciente(_nome, _idade, _cpf);\r\n\r\n        if (_ehPacienteValido(novoPaciente)) {\r\n            pacientes[msg.sender] = novoPaciente;\r\n        } else {\r\n            revert(\"Dados invalidos! Verifique nome, idade (>12) e CPF (12 digitos).\");\r\n        }\r\n    }\r\n\r\n    function consultarPaciente(address _endereco) public view returns (string memory, uint, string memory) {\r\n        Paciente memory p = pacientes[_endereco];\r\n        return (p.nome, p.idade, p.cpf);\r\n    }\r\n}",
  "sourcePath": "C:\\Users\\USER\\Desktop\\BlockChain\\contracts\\CadastroPacientes.sol",
  "compiler": {
    "name": "solc",
    "version": "0.8.19+commit.7dd6d404.Emscripten.clang"
  },
  "schemaVersion": "3.4.16",
  "updatedAt": "2025-11-06T02:49:40.754Z",
  "networkType": "ethereum",
  "devdoc": {
    "kind": "dev",
    "methods": {},
    "version": 1
  },
  "userdoc": {
    "kind": "user",
    "methods": {},
    "version": 1
  }
}