{
  "contractName": "ContratoExemplo",
  "abi": [
    {
      "inputs": [],
      "name": "numero",
      "outputs": [
        {
          "internalType": "uint128",
          "name": "",
          "type": "uint128"
        }
      ],
      "stateMutability": "view",
      "type": "function",
      "constant": true
    },
    {
      "inputs": [
        {
          "internalType": "uint128",
          "name": "_numero",
          "type": "uint128"
        }
      ],
      "name": "guardar",
      "outputs": [],
      "stateMutability": "nonpayable",
      "type": "function"
    }
  ],
  "bytecode": "0x608060405234801561001057600080fd5b506101aa806100206000396000f3fe608060405234801561001057600080fd5b50600436106100365760003560e01c806391f5de381461003b578063ba4b2c3d14610059575b600080fd5b610043610075565b60405161005091906100fb565b60405180910390f35b610073600480360381019061006e9190610147565b610095565b005b60008054906101000a90046fffffffffffffffffffffffffffffffff1681565b806000806101000a8154816fffffffffffffffffffffffffffffffff02191690836fffffffffffffffffffffffffffffffff16021790555050565b60006fffffffffffffffffffffffffffffffff82169050919050565b6100f5816100d0565b82525050565b600060208201905061011060008301846100ec565b92915050565b600080fd5b610124816100d0565b811461012f57600080fd5b50565b6000813590506101418161011b565b92915050565b60006020828403121561015d5761015c610116565b5b600061016b84828501610132565b9150509291505056fea2646970667358221220e2bee022962625c44e8c86d8f20a1649d5869fbb415e0ef90d866d81fd480d7f64736f6c63430008130033",
  "immutableReferences": {},
  "source": "// SPDX-License-Identifier: MIT\r\npragma solidity 0.8.19;\r\n\r\ncontract ContratoExemplo {\r\n    uint128 public numero;\r\n\r\n    function guardar(uint128 _numero) public {\r\n        numero = _numero;\r\n    }\r\n}\r\n",
  "sourcePath": "C:\\Users\\USER\\Desktop\\BlockChain\\contracts\\ContratoExemplo.sol",
  "compiler": {
    "name": "solc",
    "version": "0.8.19+commit.7dd6d404.Emscripten.clang"
  },
  "schemaVersion": "3.4.16",
  "updatedAt": "2025-11-06T02:49:40.680Z",
  "networkType": "ethereum",
  "devdoc": {
    "kind": "dev",
    "methods": {},
    "version": 1
  },
  "userdoc": {
    "kind": "user",
    "methods": {},
    "version": 1
  }
}